{
  "_format": "hh-sol-artifact-1",
  "contractName": "Voting",
  "sourceName": "contracts/Voting.sol",
  "abi": [
    {
      "inputs": [
        {
          "internalType": "address",
          "name": "trustedForwarder",
          "type": "address"
        }
      ],
      "stateMutability": "nonpayable",
      "type": "constructor"
    },
    {
      "inputs": [],
      "name": "AccessControlBadConfirmation",
      "type": "error"
    },
    {
      "inputs": [
        {
          "internalType": "address",
          "name": "account",
          "type": "address"
        },
        {
          "internalType": "bytes32",
          "name": "neededRole",
          "type": "bytes32"
        }
      ],
      "name": "AccessControlUnauthorizedAccount",
      "type": "error"
    },
    {
      "inputs": [],
      "name": "EnforcedPause",
      "type": "error"
    },
    {
      "inputs": [],
      "name": "ExpectedPause",
      "type": "error"
    },
    {
      "inputs": [],
      "name": "ReentrancyGuardReentrantCall",
      "type": "error"
    },
    {
      "anonymous": false,
      "inputs": [
        {
          "indexed": true,
          "internalType": "uint256",
          "name": "electionId",
          "type": "uint256"
        },
        {
          "indexed": false,
          "internalType": "string",
          "name": "title",
          "type": "string"
        }
      ],
      "name": "ElectionCreated",
      "type": "event"
    },
    {
      "anonymous": false,
      "inputs": [
        {
          "indexed": false,
          "internalType": "address",
          "name": "account",
          "type": "address"
        }
      ],
      "name": "Paused",
      "type": "event"
    },
    {
      "anonymous": false,
      "inputs": [
        {
          "indexed": true,
          "internalType": "bytes32",
          "name": "role",
          "type": "bytes32"
        },
        {
          "indexed": true,
          "internalType": "bytes32",
          "name": "previousAdminRole",
          "type": "bytes32"
        },
        {
          "indexed": true,
          "internalType": "bytes32",
          "name": "newAdminRole",
          "type": "bytes32"
        }
      ],
      "name": "RoleAdminChanged",
      "type": "event"
    },
    {
      "anonymous": false,
      "inputs": [
        {
          "indexed": true,
          "internalType": "bytes32",
          "name": "role",
          "type": "bytes32"
        },
        {
          "indexed": true,
          "internalType": "address",
          "name": "account",
          "type": "address"
        },
        {
          "indexed": true,
          "internalType": "address",
          "name": "sender",
          "type": "address"
        }
      ],
      "name": "RoleGranted",
      "type": "event"
    },
    {
      "anonymous": false,
      "inputs": [
        {
          "indexed": true,
          "internalType": "bytes32",
          "name": "role",
          "type": "bytes32"
        },
        {
          "indexed": true,
          "internalType": "address",
          "name": "account",
          "type": "address"
        },
        {
          "indexed": true,
          "internalType": "address",
          "name": "sender",
          "type": "address"
        }
      ],
      "name": "RoleRevoked",
      "type": "event"
    },
    {
      "anonymous": false,
      "inputs": [
        {
          "indexed": false,
          "internalType": "address",
          "name": "account",
          "type": "address"
        }
      ],
      "name": "Unpaused",
      "type": "event"
    },
    {
      "anonymous": false,
      "inputs": [
        {
          "indexed": true,
          "internalType": "uint256",
          "name": "electionId",
          "type": "uint256"
        },
        {
          "indexed": true,
          "internalType": "address",
          "name": "voter",
          "type": "address"
        },
        {
          "indexed": false,
          "internalType": "uint256",
          "name": "candidateId",
          "type": "uint256"
        }
      ],
      "name": "VoteCast",
      "type": "event"
    },
    {
      "inputs": [],
      "name": "DEFAULT_ADMIN_ROLE",
      "outputs": [
        {
          "internalType": "bytes32",
          "name": "",
          "type": "bytes32"
        }
      ],
      "stateMutability": "view",
      "type": "function"
    },
    {
      "inputs": [],
      "name": "ELECTION_MANAGER",
      "outputs": [
        {
          "internalType": "bytes32",
          "name": "",
          "type": "bytes32"
        }
      ],
      "stateMutability": "view",
      "type": "function"
    },
    {
      "inputs": [
        {
          "internalType": "uint256",
          "name": "_electionId",
          "type": "uint256"
        },
        {
          "internalType": "string",
          "name": "_name",
          "type": "string"
        },
        {
          "internalType": "string",
          "name": "_party",
          "type": "string"
        }
      ],
      "name": "addCandidate",
      "outputs": [],
      "stateMutability": "nonpayable",
      "type": "function"
    },
    {
      "inputs": [
        {
          "internalType": "uint256",
          "name": "",
          "type": "uint256"
        },
        {
          "internalType": "uint256",
          "name": "",
          "type": "uint256"
        }
      ],
      "name": "candidates",
      "outputs": [
        {
          "internalType": "uint256",
          "name": "id",
          "type": "uint256"
        },
        {
          "internalType": "string",
          "name": "name",
          "type": "string"
        },
        {
          "internalType": "string",
          "name": "party",
          "type": "string"
        },
        {
          "internalType": "uint256",
          "name": "voteCount",
          "type": "uint256"
        }
      ],
      "stateMutability": "view",
      "type": "function"
    },
    {
      "inputs": [
        {
          "internalType": "string",
          "name": "_title",
          "type": "string"
        },
        {
          "internalType": "uint256",
          "name": "_startTime",
          "type": "uint256"
        },
        {
          "internalType": "uint256",
          "name": "_endTime",
          "type": "uint256"
        }
      ],
      "name": "createElection",
      "outputs": [],
      "stateMutability": "nonpayable",
      "type": "function"
    },
    {
      "inputs": [
        {
          "internalType": "uint256",
          "name": "_electionId",
          "type": "uint256"
        }
      ],
      "name": "deleteElection",
      "outputs": [],
      "stateMutability": "nonpayable",
      "type": "function"
    },
    {
      "inputs": [],
      "name": "electionCount",
      "outputs": [
        {
          "internalType": "uint256",
          "name": "",
          "type": "uint256"
        }
      ],
      "stateMutability": "view",
      "type": "function"
    },
    {
      "inputs": [
        {
          "internalType": "uint256",
          "name": "",
          "type": "uint256"
        }
      ],
      "name": "elections",
      "outputs": [
        {
          "internalType": "uint256",
          "name": "id",
          "type": "uint256"
        },
        {
          "internalType": "string",
          "name": "title",
          "type": "string"
        },
        {
          "internalType": "uint256",
          "name": "startTime",
          "type": "uint256"
        },
        {
          "internalType": "uint256",
          "name": "endTime",
          "type": "uint256"
        },
        {
          "internalType": "bool",
          "name": "active",
          "type": "bool"
        },
        {
          "internalType": "bool",
          "name": "showResults",
          "type": "bool"
        },
        {
          "internalType": "bool",
          "name": "deleted",
          "type": "bool"
        },
        {
          "internalType": "uint256",
          "name": "candidateCount",
          "type": "uint256"
        }
      ],
      "stateMutability": "view",
      "type": "function"
    },
    {
      "inputs": [],
      "name": "getAllElections",
      "outputs": [
        {
          "components": [
            {
              "internalType": "uint256",
              "name": "id",
              "type": "uint256"
            },
            {
              "internalType": "string",
              "name": "title",
              "type": "string"
            },
            {
              "internalType": "uint256",
              "name": "startTime",
              "type": "uint256"
            },
            {
              "internalType": "uint256",
              "name": "endTime",
              "type": "uint256"
            },
            {
              "internalType": "bool",
              "name": "active",
              "type": "bool"
            },
            {
              "internalType": "bool",
              "name": "showResults",
              "type": "bool"
            },
            {
              "internalType": "bool",
              "name": "deleted",
              "type": "bool"
            },
            {
              "internalType": "uint256",
              "name": "candidateCount",
              "type": "uint256"
            }
          ],
          "internalType": "struct Voting.Election[]",
          "name": "",
          "type": "tuple[]"
        }
      ],
      "stateMutability": "view",
      "type": "function"
    },
    {
      "inputs": [
        {
          "internalType": "uint256",
          "name": "_electionId",
          "type": "uint256"
        }
      ],
      "name": "getCandidates",
      "outputs": [
        {
          "components": [
            {
              "internalType": "uint256",
              "name": "id",
              "type": "uint256"
            },
            {
              "internalType": "string",
              "name": "name",
              "type": "string"
            },
            {
              "internalType": "string",
              "name": "party",
              "type": "string"
            },
            {
              "internalType": "uint256",
              "name": "voteCount",
              "type": "uint256"
            }
          ],
          "internalType": "struct Voting.Candidate[]",
          "name": "",
          "type": "tuple[]"
        }
      ],
      "stateMutability": "view",
      "type": "function"
    },
    {
      "inputs": [
        {
          "internalType": "bytes32",
          "name": "role",
          "type": "bytes32"
        }
      ],
      "name": "getRoleAdmin",
      "outputs": [
        {
          "internalType": "bytes32",
          "name": "",
          "type": "bytes32"
        }
      ],
      "stateMutability": "view",
      "type": "function"
    },
    {
      "inputs": [],
      "name": "getWelcomeMessage",
      "outputs": [
        {
          "internalType": "string",
          "name": "",
          "type": "string"
        }
      ],
      "stateMutability": "pure",
      "type": "function"
    },
    {
      "inputs": [
        {
          "internalType": "bytes32",
          "name": "role",
          "type": "bytes32"
        },
        {
          "internalType": "address",
          "name": "account",
          "type": "address"
        }
      ],
      "name": "grantRole",
      "outputs": [],
      "stateMutability": "nonpayable",
      "type": "function"
    },
    {
      "inputs": [
        {
          "internalType": "bytes32",
          "name": "role",
          "type": "bytes32"
        },
        {
          "internalType": "address",
          "name": "account",
          "type": "address"
        }
      ],
      "name": "hasRole",
      "outputs": [
        {
          "internalType": "bool",
          "name": "",
          "type": "bool"
        }
      ],
      "stateMutability": "view",
      "type": "function"
    },
    {
      "inputs": [
        {
          "internalType": "address",
          "name": "forwarder",
          "type": "address"
        }
      ],
      "name": "isTrustedForwarder",
      "outputs": [
        {
          "internalType": "bool",
          "name": "",
          "type": "bool"
        }
      ],
      "stateMutability": "view",
      "type": "function"
    },
    {
      "inputs": [],
      "name": "paused",
      "outputs": [
        {
          "internalType": "bool",
          "name": "",
          "type": "bool"
        }
      ],
      "stateMutability": "view",
      "type": "function"
    },
    {
      "inputs": [
        {
          "internalType": "bytes32",
          "name": "role",
          "type": "bytes32"
        },
        {
          "internalType": "address",
          "name": "callerConfirmation",
          "type": "address"
        }
      ],
      "name": "renounceRole",
      "outputs": [],
      "stateMutability": "nonpayable",
      "type": "function"
    },
    {
      "inputs": [
        {
          "internalType": "bytes32",
          "name": "role",
          "type": "bytes32"
        },
        {
          "internalType": "address",
          "name": "account",
          "type": "address"
        }
      ],
      "name": "revokeRole",
      "outputs": [],
      "stateMutability": "nonpayable",
      "type": "function"
    },
    {
      "inputs": [
        {
          "internalType": "uint256",
          "name": "_electionId",
          "type": "uint256"
        },
        {
          "internalType": "bool",
          "name": "_active",
          "type": "bool"
        }
      ],
      "name": "setElectionStatus",
      "outputs": [],
      "stateMutability": "nonpayable",
      "type": "function"
    },
    {
      "inputs": [
        {
          "internalType": "bytes4",
          "name": "interfaceId",
          "type": "bytes4"
        }
      ],
      "name": "supportsInterface",
      "outputs": [
        {
          "internalType": "bool",
          "name": "",
          "type": "bool"
        }
      ],
      "stateMutability": "view",
      "type": "function"
    },
    {
      "inputs": [
        {
          "internalType": "uint256",
          "name": "_electionId",
          "type": "uint256"
        },
        {
          "internalType": "bool",
          "name": "_show",
          "type": "bool"
        }
      ],
      "name": "toggleResults",
      "outputs": [],
      "stateMutability": "nonpayable",
      "type": "function"
    },
    {
      "inputs": [],
      "name": "trustedForwarder",
      "outputs": [
        {
          "internalType": "address",
          "name": "",
          "type": "address"
        }
      ],
      "stateMutability": "view",
      "type": "function"
    },
    {
      "inputs": [
        {
          "internalType": "uint256",
          "name": "_electionId",
          "type": "uint256"
        },
        {
          "internalType": "uint256",
          "name": "_candidateId",
          "type": "uint256"
        }
      ],
      "name": "vote",
      "outputs": [],
      "stateMutability": "nonpayable",
      "type": "function"
    },
    {
      "inputs": [
        {
          "internalType": "uint256",
          "name": "",
          "type": "uint256"
        },
        {
          "internalType": "address",
          "name": "",
          "type": "address"
        }
      ],
      "name": "voters",
      "outputs": [
        {
          "internalType": "bool",
          "name": "isRegistered",
          "type": "bool"
        },
        {
          "internalType": "bool",
          "name": "hasVoted",
          "type": "bool"
        },
        {
          "internalType": "uint256",
          "name": "votedCandidateId",
          "type": "uint256"
        }
      ],
      "stateMutability": "view",
      "type": "function"
    }
  ],
  "bytecode": "0x60a06040523480156200001157600080fd5b5060405162002ed738038062002ed78339818101604052810190620000379190620003d5565b8060016002819055508073ffffffffffffffffffffffffffffffffffffffff1660808173ffffffffffffffffffffffffffffffffffffffff168152505050620000996000801b6200008d620000e360201b60201c565b620000fa60201b60201c565b50620000db7f8d6d2bf951a56eea8e2175f784a19fc077c73932022a49080fdd66dfab4e8085620000cf620000e360201b60201c565b620000fa60201b60201c565b5050620004fc565b6000620000f5620001fd60201b60201c565b905090565b60006200010e83836200028860201b60201c565b620001f257600160008085815260200190815260200160002060000160008473ffffffffffffffffffffffffffffffffffffffff1673ffffffffffffffffffffffffffffffffffffffff16815260200190815260200160002060006101000a81548160ff0219169083151502179055506200018e620000e360201b60201c565b73ffffffffffffffffffffffffffffffffffffffff168273ffffffffffffffffffffffffffffffffffffffff16847f2f8788117e7eff1d82e926ec794901d17c78024a50270940304540a733656f0d60405160405180910390a460019050620001f7565b600090505b92915050565b60008060003690509050600062000219620002f260201b60201c565b905080821015801562000239575062000238336200030960201b60201c565b5b156200027057600036828403908092620002569392919062000411565b9062000263919062000496565b60601c9250505062000285565b620002806200035060201b60201c565b925050505b90565b600080600084815260200190815260200160002060000160008373ffffffffffffffffffffffffffffffffffffffff1673ffffffffffffffffffffffffffffffffffffffff16815260200190815260200160002060009054906101000a900460ff16905092915050565b6000620003046200035860201b60201c565b905090565b60006200031b6200036160201b60201c565b73ffffffffffffffffffffffffffffffffffffffff168273ffffffffffffffffffffffffffffffffffffffff16149050919050565b600033905090565b60006014905090565b6000608051905090565b600080fd5b600073ffffffffffffffffffffffffffffffffffffffff82169050919050565b60006200039d8262000370565b9050919050565b620003af8162000390565b8114620003bb57600080fd5b50565b600081519050620003cf81620003a4565b92915050565b600060208284031215620003ee57620003ed6200036b565b5b6000620003fe84828501620003be565b91505092915050565b600080fd5b600080fd5b6000808585111562000428576200042762000407565b5b838611156200043c576200043b6200040c565b5b6001850283019150848603905094509492505050565b600082905092915050565b60007fffffffffffffffffffffffffffffffffffffffff00000000000000000000000082169050919050565b600082821b905092915050565b6000620004a4838362000452565b82620004b181356200045d565b92506014821015620004f457620004ef7fffffffffffffffffffffffffffffffffffffffff0000000000000000000000008360140360080262000489565b831692505b505092915050565b6080516129bf620005186000396000610acc01526129bf6000f3fe608060405234801561001057600080fd5b50600436106101585760003560e01c80637de14242116100c3578063b384abef1161007c578063b384abef1461040d578063d547741f14610429578063d5617ecf14610445578063da32347314610461578063e6c62efc1461047f578063f49a7a171461049b57610158565b80637de142421461031e5780637fd5f2681461035157806391d148541461036f578063997d28301461039f5780639e319063146103bd578063a217fddf146103ef57610158565b8063402f503211610115578063402f503214610241578063572b6c051461025f5780635c975abb1461028f5780635e6fef01146102ad578063740c47d4146102e45780637da0a8771461030057610158565b806301ffc9a71461015d578063248a9ca31461018d5780632f2ff15d146101bd57806336568abe146101d95780633b9260f9146101f55780633e39a7a514610211575b600080fd5b610177600480360381019061017291906118f1565b6104b7565b6040516101849190611939565b60405180910390f35b6101a760048036038101906101a2919061198a565b610531565b6040516101b491906119c6565b60405180910390f35b6101d760048036038101906101d29190611a3f565b610550565b005b6101f360048036038101906101ee9190611a3f565b610572565b005b61020f600480360381019061020a9190611ae1565b6105ed565b005b61022b60048036038101906102269190611b21565b610680565b6040516102389190611d19565b60405180910390f35b6102496108b2565b6040516102569190611d85565b60405180910390f35b61027960048036038101906102749190611da7565b6108ef565b6040516102869190611939565b60405180910390f35b61029761092e565b6040516102a49190611939565b60405180910390f35b6102c760048036038101906102c29190611b21565b610945565b6040516102db989796959493929190611de3565b60405180910390f35b6102fe60048036038101906102f99190611b21565b610a3c565b005b610308610ac8565b6040516103159190611e77565b60405180910390f35b61033860048036038101906103339190611e92565b610af0565b6040516103489493929190611ed2565b60405180910390f35b610359610c3d565b60405161036691906120a6565b60405180910390f35b61038960048036038101906103849190611a3f565b610e18565b6040516103969190611939565b60405180910390f35b6103a7610e82565b6040516103b491906120c8565b60405180910390f35b6103d760048036038101906103d291906120e3565b610e88565b6040516103e693929190612123565b60405180910390f35b6103f7610ed9565b60405161040491906119c6565b60405180910390f35b61042760048036038101906104229190611e92565b610ee0565b005b610443600480360381019061043e9190611a3f565b6111b1565b005b61045f600480360381019061045a9190611ae1565b6111d3565b005b610469611230565b60405161047691906119c6565b60405180910390f35b6104996004803603810190610494919061228f565b611254565b005b6104b560048036038101906104b0919061231a565b611347565b005b60007f7965db0b000000000000000000000000000000000000000000000000000000007bffffffffffffffffffffffffffffffffffffffffffffffffffffffff1916827bffffffffffffffffffffffffffffffffffffffffffffffffffffffff1916148061052a5750610529826114c5565b5b9050919050565b6000806000838152602001908152602001600020600101549050919050565b61055982610531565b6105628161152f565b61056c8383611543565b50505050565b61057a611634565b73ffffffffffffffffffffffffffffffffffffffff168173ffffffffffffffffffffffffffffffffffffffff16146105de576040517f6697b23200000000000000000000000000000000000000000000000000000000815260040160405180910390fd5b6105e88282611643565b505050565b7f8d6d2bf951a56eea8e2175f784a19fc077c73932022a49080fdd66dfab4e80856106178161152f565b816004600085815260200190815260200160002060040160016101000a81548160ff021916908315150217905550811561067b5760006004600085815260200190815260200160002060040160006101000a81548160ff0219169083151502179055505b505050565b606060006004600084815260200190815260200160002060050154905060008167ffffffffffffffff8111156106b9576106b8612164565b5b6040519080825280602002602001820160405280156106f257816020015b6106df611812565b8152602001906001900390816106d75790505b5090506000600190505b8281116108a7576005600086815260200190815260200160002060008281526020019081526020016000206040518060800160405290816000820154815260200160018201805461074c906123b8565b80601f0160208091040260200160405190810160405280929190818152602001828054610778906123b8565b80156107c55780601f1061079a576101008083540402835291602001916107c5565b820191906000526020600020905b8154815290600101906020018083116107a857829003601f168201915b505050505081526020016002820180546107de906123b8565b80601f016020809104026020016040519081016040528092919081815260200182805461080a906123b8565b80156108575780601f1061082c57610100808354040283529160200191610857565b820191906000526020600020905b81548152906001019060200180831161083a57829003601f168201915b50505050508152602001600382015481525050826001836108789190612418565b815181106108895761088861244c565b5b6020026020010181905250808061089f9061247b565b9150506106fc565b508092505050919050565b60606040518060400160405280601281526020017f57656c636f6d6520746f20442d566f7465210000000000000000000000000000815250905090565b60006108f9610ac8565b73ffffffffffffffffffffffffffffffffffffffff168273ffffffffffffffffffffffffffffffffffffffff16149050919050565b6000600160009054906101000a900460ff16905090565b600460205280600052604060002060009150905080600001549080600101805461096e906123b8565b80601f016020809104026020016040519081016040528092919081815260200182805461099a906123b8565b80156109e75780601f106109bc576101008083540402835291602001916109e7565b820191906000526020600020905b8154815290600101906020018083116109ca57829003601f168201915b5050505050908060020154908060030154908060040160009054906101000a900460ff16908060040160019054906101000a900460ff16908060040160029054906101000a900460ff16908060050154905088565b7f8d6d2bf951a56eea8e2175f784a19fc077c73932022a49080fdd66dfab4e8085610a668161152f565b60016004600084815260200190815260200160002060040160026101000a81548160ff02191690831515021790555060006004600084815260200190815260200160002060040160006101000a81548160ff0219169083151502179055505050565b60007f0000000000000000000000000000000000000000000000000000000000000000905090565b600560205281600052604060002060205280600052604060002060009150915050806000015490806001018054610b26906123b8565b80601f0160208091040260200160405190810160405280929190818152602001828054610b52906123b8565b8015610b9f5780601f10610b7457610100808354040283529160200191610b9f565b820191906000526020600020905b815481529060010190602001808311610b8257829003601f168201915b505050505090806002018054610bb4906123b8565b80601f0160208091040260200160405190810160405280929190818152602001828054610be0906123b8565b8015610c2d5780601f10610c0257610100808354040283529160200191610c2d565b820191906000526020600020905b815481529060010190602001808311610c1057829003601f168201915b5050505050908060030154905084565b6060600060035467ffffffffffffffff811115610c5d57610c5c612164565b5b604051908082528060200260200182016040528015610c9657816020015b610c8361183a565b815260200190600190039081610c7b5790505b5090506000600190505b6003548111610e1057600460008281526020019081526020016000206040518061010001604052908160008201548152602001600182018054610ce2906123b8565b80601f0160208091040260200160405190810160405280929190818152602001828054610d0e906123b8565b8015610d5b5780601f10610d3057610100808354040283529160200191610d5b565b820191906000526020600020905b815481529060010190602001808311610d3e57829003601f168201915b5050505050815260200160028201548152602001600382015481526020016004820160009054906101000a900460ff161515151581526020016004820160019054906101000a900460ff161515151581526020016004820160029054906101000a900460ff1615151515815260200160058201548152505082600183610de19190612418565b81518110610df257610df161244c565b5b60200260200101819052508080610e089061247b565b915050610ca0565b508091505090565b600080600084815260200190815260200160002060000160008373ffffffffffffffffffffffffffffffffffffffff1673ffffffffffffffffffffffffffffffffffffffff16815260200190815260200160002060009054906101000a900460ff16905092915050565b60035481565b6006602052816000526040600020602052806000526040600020600091509150508060000160009054906101000a900460ff16908060000160019054906101000a900460ff16908060010154905083565b6000801b81565b60006004600084815260200190815260200160002090508060040160009054906101000a900460ff16610f48576040517f08c379a0000000000000000000000000000000000000000000000000000000008152600401610f3f9061250f565b60405180910390fd5b80600201544210158015610f60575080600301544211155b610f9f576040517f08c379a0000000000000000000000000000000000000000000000000000000008152600401610f969061257b565b60405180910390fd5b600660008481526020019081526020016000206000610fbc611634565b73ffffffffffffffffffffffffffffffffffffffff1673ffffffffffffffffffffffffffffffffffffffff16815260200190815260200160002060000160019054906101000a900460ff1615611047576040517f08c379a000000000000000000000000000000000000000000000000000000000815260040161103e906125e7565b60405180910390fd5b6001600660008581526020019081526020016000206000611066611634565b73ffffffffffffffffffffffffffffffffffffffff1673ffffffffffffffffffffffffffffffffffffffff16815260200190815260200160002060000160016101000a81548160ff021916908315150217905550816006600085815260200190815260200160002060006110d8611634565b73ffffffffffffffffffffffffffffffffffffffff1673ffffffffffffffffffffffffffffffffffffffff1681526020019081526020016000206001018190555060056000848152602001908152602001600020600083815260200190815260200160002060030160008154809291906111519061247b565b919050555061115e611634565b73ffffffffffffffffffffffffffffffffffffffff16837f2acce567deca3aabf56327adbb4524bd5318936eaefa69e3a5208ffda0cfec09846040516111a491906120c8565b60405180910390a3505050565b6111ba82610531565b6111c38161152f565b6111cd8383611643565b50505050565b7f8d6d2bf951a56eea8e2175f784a19fc077c73932022a49080fdd66dfab4e80856111fd8161152f565b816004600085815260200190815260200160002060040160006101000a81548160ff021916908315150217905550505050565b7f8d6d2bf951a56eea8e2175f784a19fc077c73932022a49080fdd66dfab4e808581565b7f8d6d2bf951a56eea8e2175f784a19fc077c73932022a49080fdd66dfab4e808561127e8161152f565b60006004600086815260200190815260200160002090508060050160008154809291906112aa9061247b565b919050555060405180608001604052808260050154815260200185815260200184815260200160008152506005600087815260200190815260200160002060008360050154815260200190815260200160002060008201518160000155602082015181600101908161131c91906127b3565b50604082015181600201908161133291906127b3565b50606082015181600301559050505050505050565b7f8d6d2bf951a56eea8e2175f784a19fc077c73932022a49080fdd66dfab4e80856113718161152f565b600360008154809291906113849061247b565b91905055506040518061010001604052806003548152602001858152602001848152602001838152602001600115158152602001600015158152602001600015158152602001600081525060046000600354815260200190815260200160002060008201518160000155602082015181600101908161140391906127b3565b50604082015181600201556060820151816003015560808201518160040160006101000a81548160ff02191690831515021790555060a08201518160040160016101000a81548160ff02191690831515021790555060c08201518160040160026101000a81548160ff02191690831515021790555060e082015181600501559050506003547f52be7c4e77b4de76b7607d621492061fe13b58597e72dfb5e51ab8f6187ed141856040516114b79190611d85565b60405180910390a250505050565b60007f01ffc9a7000000000000000000000000000000000000000000000000000000007bffffffffffffffffffffffffffffffffffffffffffffffffffffffff1916827bffffffffffffffffffffffffffffffffffffffffffffffffffffffff1916149050919050565b6115408161153b611634565b611735565b50565b600061154f8383610e18565b61162957600160008085815260200190815260200160002060000160008473ffffffffffffffffffffffffffffffffffffffff1673ffffffffffffffffffffffffffffffffffffffff16815260200190815260200160002060006101000a81548160ff0219169083151502179055506115c6611634565b73ffffffffffffffffffffffffffffffffffffffff168273ffffffffffffffffffffffffffffffffffffffff16847f2f8788117e7eff1d82e926ec794901d17c78024a50270940304540a733656f0d60405160405180910390a46001905061162e565b600090505b92915050565b600061163e611786565b905090565b600061164f8383610e18565b1561172a57600080600085815260200190815260200160002060000160008473ffffffffffffffffffffffffffffffffffffffff1673ffffffffffffffffffffffffffffffffffffffff16815260200190815260200160002060006101000a81548160ff0219169083151502179055506116c7611634565b73ffffffffffffffffffffffffffffffffffffffff168273ffffffffffffffffffffffffffffffffffffffff16847ff6391f5c32d9c69d2a47ea670b442974b53935d1edc7fd64eb21e047a839171b60405160405180910390a46001905061172f565b600090505b92915050565b61173f8282610e18565b6117825780826040517fe2517d3f000000000000000000000000000000000000000000000000000000008152600401611779929190612885565b60405180910390fd5b5050565b60008060003690509050600061179a6117f2565b90508082101580156117b157506117b0336108ef565b5b156117e2576000368284039080926117cb939291906128b8565b906117d6919061292a565b60601c925050506117ef565b6117ea611801565b925050505b90565b60006117fc611809565b905090565b600033905090565b60006014905090565b6040518060800160405280600081526020016060815260200160608152602001600081525090565b60405180610100016040528060008152602001606081526020016000815260200160008152602001600015158152602001600015158152602001600015158152602001600081525090565b6000604051905090565b600080fd5b600080fd5b60007fffffffff0000000000000000000000000000000000000000000000000000000082169050919050565b6118ce81611899565b81146118d957600080fd5b50565b6000813590506118eb816118c5565b92915050565b6000602082840312156119075761190661188f565b5b6000611915848285016118dc565b91505092915050565b60008115159050919050565b6119338161191e565b82525050565b600060208201905061194e600083018461192a565b92915050565b6000819050919050565b61196781611954565b811461197257600080fd5b50565b6000813590506119848161195e565b92915050565b6000602082840312156119a05761199f61188f565b5b60006119ae84828501611975565b91505092915050565b6119c081611954565b82525050565b60006020820190506119db60008301846119b7565b92915050565b600073ffffffffffffffffffffffffffffffffffffffff82169050919050565b6000611a0c826119e1565b9050919050565b611a1c81611a01565b8114611a2757600080fd5b50565b600081359050611a3981611a13565b92915050565b60008060408385031215611a5657611a5561188f565b5b6000611a6485828601611975565b9250506020611a7585828601611a2a565b9150509250929050565b6000819050919050565b611a9281611a7f565b8114611a9d57600080fd5b50565b600081359050611aaf81611a89565b92915050565b611abe8161191e565b8114611ac957600080fd5b50565b600081359050611adb81611ab5565b92915050565b60008060408385031215611af857611af761188f565b5b6000611b0685828601611aa0565b9250506020611b1785828601611acc565b9150509250929050565b600060208284031215611b3757611b3661188f565b5b6000611b4584828501611aa0565b91505092915050565b600081519050919050565b600082825260208201905092915050565b6000819050602082019050919050565b611b8381611a7f565b82525050565b600081519050919050565b600082825260208201905092915050565b60005b83811015611bc3578082015181840152602081019050611ba8565b60008484015250505050565b6000601f19601f8301169050919050565b6000611beb82611b89565b611bf58185611b94565b9350611c05818560208601611ba5565b611c0e81611bcf565b840191505092915050565b6000608083016000830151611c316000860182611b7a565b5060208301518482036020860152611c498282611be0565b91505060408301518482036040860152611c638282611be0565b9150506060830151611c786060860182611b7a565b508091505092915050565b6000611c8f8383611c19565b905092915050565b6000602082019050919050565b6000611caf82611b4e565b611cb98185611b59565b935083602082028501611ccb85611b6a565b8060005b85811015611d075784840389528151611ce88582611c83565b9450611cf383611c97565b925060208a01995050600181019050611ccf565b50829750879550505050505092915050565b60006020820190508181036000830152611d338184611ca4565b905092915050565b600082825260208201905092915050565b6000611d5782611b89565b611d618185611d3b565b9350611d71818560208601611ba5565b611d7a81611bcf565b840191505092915050565b60006020820190508181036000830152611d9f8184611d4c565b905092915050565b600060208284031215611dbd57611dbc61188f565b5b6000611dcb84828501611a2a565b91505092915050565b611ddd81611a7f565b82525050565b600061010082019050611df9600083018b611dd4565b8181036020830152611e0b818a611d4c565b9050611e1a6040830189611dd4565b611e276060830188611dd4565b611e34608083018761192a565b611e4160a083018661192a565b611e4e60c083018561192a565b611e5b60e0830184611dd4565b9998505050505050505050565b611e7181611a01565b82525050565b6000602082019050611e8c6000830184611e68565b92915050565b60008060408385031215611ea957611ea861188f565b5b6000611eb785828601611aa0565b9250506020611ec885828601611aa0565b9150509250929050565b6000608082019050611ee76000830187611dd4565b8181036020830152611ef98186611d4c565b90508181036040830152611f0d8185611d4c565b9050611f1c6060830184611dd4565b95945050505050565b600081519050919050565b600082825260208201905092915050565b6000819050602082019050919050565b611f5a8161191e565b82525050565b600061010083016000830151611f796000860182611b7a565b5060208301518482036020860152611f918282611be0565b9150506040830151611fa66040860182611b7a565b506060830151611fb96060860182611b7a565b506080830151611fcc6080860182611f51565b5060a0830151611fdf60a0860182611f51565b5060c0830151611ff260c0860182611f51565b5060e083015161200560e0860182611b7a565b508091505092915050565b600061201c8383611f60565b905092915050565b6000602082019050919050565b600061203c82611f25565b6120468185611f30565b93508360208202850161205885611f41565b8060005b8581101561209457848403895281516120758582612010565b945061208083612024565b925060208a0199505060018101905061205c565b50829750879550505050505092915050565b600060208201905081810360008301526120c08184612031565b905092915050565b60006020820190506120dd6000830184611dd4565b92915050565b600080604083850312156120fa576120f961188f565b5b600061210885828601611aa0565b925050602061211985828601611a2a565b9150509250929050565b6000606082019050612138600083018661192a565b612145602083018561192a565b6121526040830184611dd4565b949350505050565b600080fd5b600080fd5b7f4e487b7100000000000000000000000000000000000000000000000000000000600052604160045260246000fd5b61219c82611bcf565b810181811067ffffffffffffffff821117156121bb576121ba612164565b5b80604052505050565b60006121ce611885565b90506121da8282612193565b919050565b600067ffffffffffffffff8211156121fa576121f9612164565b5b61220382611bcf565b9050602081019050919050565b82818337600083830152505050565b600061223261222d846121df565b6121c4565b90508281526020810184848401111561224e5761224d61215f565b5b612259848285612210565b509392505050565b600082601f8301126122765761227561215a565b5b813561228684826020860161221f565b91505092915050565b6000806000606084860312156122a8576122a761188f565b5b60006122b686828701611aa0565b935050602084013567ffffffffffffffff8111156122d7576122d6611894565b5b6122e386828701612261565b925050604084013567ffffffffffffffff81111561230457612303611894565b5b61231086828701612261565b9150509250925092565b6000806000606084860312156123335761233261188f565b5b600084013567ffffffffffffffff81111561235157612350611894565b5b61235d86828701612261565b935050602061236e86828701611aa0565b925050604061237f86828701611aa0565b9150509250925092565b7f4e487b7100000000000000000000000000000000000000000000000000000000600052602260045260246000fd5b600060028204905060018216806123d057607f821691505b6020821081036123e3576123e2612389565b5b50919050565b7f4e487b7100000000000000000000000000000000000000000000000000000000600052601160045260246000fd5b600061242382611a7f565b915061242e83611a7f565b9250828203905081811115612446576124456123e9565b5b92915050565b7f4e487b7100000000000000000000000000000000000000000000000000000000600052603260045260246000fd5b600061248682611a7f565b91507fffffffffffffffffffffffffffffffffffffffffffffffffffffffffffffffff82036124b8576124b76123e9565b5b600182019050919050565b7f456c656374696f6e206d616e75616c6c79206465616374697661746564000000600082015250565b60006124f9601d83611d3b565b9150612504826124c3565b602082019050919050565b60006020820190508181036000830152612528816124ec565b9050919050565b7f456c656374696f6e2077696e646f7720636c6f73656400000000000000000000600082015250565b6000612565601683611d3b565b91506125708261252f565b602082019050919050565b6000602082019050818103600083015261259481612558565b9050919050565b7f416c726561647920766f74656400000000000000000000000000000000000000600082015250565b60006125d1600d83611d3b565b91506125dc8261259b565b602082019050919050565b60006020820190508181036000830152612600816125c4565b9050919050565b60008190508160005260206000209050919050565b60006020601f8301049050919050565b600082821b905092915050565b6000600883026126697fffffffffffffffffffffffffffffffffffffffffffffffffffffffffffffffff8261262c565b612673868361262c565b95508019841693508086168417925050509392505050565b6000819050919050565b60006126b06126ab6126a684611a7f565b61268b565b611a7f565b9050919050565b6000819050919050565b6126ca83612695565b6126de6126d6826126b7565b848454612639565b825550505050565b600090565b6126f36126e6565b6126fe8184846126c1565b505050565b5b81811015612722576127176000826126eb565b600181019050612704565b5050565b601f8211156127675761273881612607565b6127418461261c565b81016020851015612750578190505b61276461275c8561261c565b830182612703565b50505b505050565b600082821c905092915050565b600061278a6000198460080261276c565b1980831691505092915050565b60006127a38383612779565b9150826002028217905092915050565b6127bc82611b89565b67ffffffffffffffff8111156127d5576127d4612164565b5b6127df82546123b8565b6127ea828285612726565b600060209050601f83116001811461281d576000841561280b578287015190505b6128158582612797565b86555061287d565b601f19841661282b86612607565b60005b828110156128535784890151825560018201915060208501945060208101905061282e565b86831015612870578489015161286c601f891682612779565b8355505b6001600288020188555050505b505050505050565b600060408201905061289a6000830185611e68565b6128a760208301846119b7565b9392505050565b600080fd5b600080fd5b600080858511156128cc576128cb6128ae565b5b838611156128dd576128dc6128b3565b5b6001850283019150848603905094509492505050565b600082905092915050565b60007fffffffffffffffffffffffffffffffffffffffff00000000000000000000000082169050919050565b600061293683836128f3565b8261294181356128fe565b925060148210156129815761297c7fffffffffffffffffffffffffffffffffffffffff0000000000000000000000008360140360080261262c565b831692505b50509291505056fea2646970667358221220edf30b26634900a4bb1c4c5f5196e802536e5cf3b873b615326af73e322bc80164736f6c63430008140033",
  "linkReferences": {},
  "deployedLinkReferences": {}
}